{
    "abi": [
        {
            "inputs": [
                {
                    "internalType": "contract IERC20",
                    "name": "asset_",
                    "type": "address"
                },
                {
                    "internalType": "contract allETH",
                    "name": "allETH_",
                    "type": "address"
                },
                {
                    "internalType": "string",
                    "name": "name_",
                    "type": "string"
                },
                {
                    "internalType": "string",
                    "name": "symbol_",
                    "type": "string"
                }
            ],
            "stateMutability": "nonpayable",
            "type": "constructor"
        },
        {
            "anonymous": false,
            "inputs": [
                {
                    "indexed": true,
                    "internalType": "address",
                    "name": "owner",
                    "type": "address"
                },
                {
                    "indexed": true,
                    "internalType": "address",
                    "name": "spender",
                    "type": "address"
                },
                {
                    "indexed": false,
                    "internalType": "uint256",
                    "name": "value",
                    "type": "uint256"
                }
            ],
            "name": "Approval",
            "type": "event"
        },
        {
            "anonymous": false,
            "inputs": [
                {
                    "indexed": true,
                    "internalType": "address",
                    "name": "sender",
                    "type": "address"
                },
                {
                    "indexed": true,
                    "internalType": "address",
                    "name": "owner",
                    "type": "address"
                },
                {
                    "indexed": false,
                    "internalType": "uint256",
                    "name": "assets",
                    "type": "uint256"
                }
            ],
            "name": "Deposit",
            "type": "event"
        },
        {
            "anonymous": false,
            "inputs": [
                {
                    "indexed": true,
                    "internalType": "address",
                    "name": "from",
                    "type": "address"
                },
                {
                    "indexed": true,
                    "internalType": "address",
                    "name": "to",
                    "type": "address"
                },
                {
                    "indexed": false,
                    "internalType": "uint256",
                    "name": "value",
                    "type": "uint256"
                }
            ],
            "name": "Transfer",
            "type": "event"
        },
        {
            "anonymous": false,
            "inputs": [
                {
                    "indexed": true,
                    "internalType": "address",
                    "name": "sender",
                    "type": "address"
                },
                {
                    "indexed": true,
                    "internalType": "address",
                    "name": "receiver",
                    "type": "address"
                },
                {
                    "indexed": true,
                    "internalType": "address",
                    "name": "owner",
                    "type": "address"
                },
                {
                    "indexed": false,
                    "internalType": "uint256",
                    "name": "assets",
                    "type": "uint256"
                },
                {
                    "indexed": false,
                    "internalType": "uint256",
                    "name": "shares",
                    "type": "uint256"
                }
            ],
            "name": "Withdraw",
            "type": "event"
        },
        {
            "inputs": [
                {
                    "internalType": "address",
                    "name": "owner",
                    "type": "address"
                },
                {
                    "internalType": "address",
                    "name": "spender",
                    "type": "address"
                }
            ],
            "name": "allowance",
            "outputs": [
                {
                    "internalType": "uint256",
                    "name": "",
                    "type": "uint256"
                }
            ],
            "stateMutability": "view",
            "type": "function"
        },
        {
            "inputs": [
                {
                    "internalType": "address",
                    "name": "spender",
                    "type": "address"
                },
                {
                    "internalType": "uint256",
                    "name": "amount",
                    "type": "uint256"
                }
            ],
            "name": "approve",
            "outputs": [
                {
                    "internalType": "bool",
                    "name": "",
                    "type": "bool"
                }
            ],
            "stateMutability": "nonpayable",
            "type": "function"
        },
        {
            "inputs": [],
            "name": "asset",
            "outputs": [
                {
                    "internalType": "address",
                    "name": "",
                    "type": "address"
                }
            ],
            "stateMutability": "view",
            "type": "function"
        },
        {
            "inputs": [
                {
                    "internalType": "address",
                    "name": "account",
                    "type": "address"
                }
            ],
            "name": "balanceOf",
            "outputs": [
                {
                    "internalType": "uint256",
                    "name": "",
                    "type": "uint256"
                }
            ],
            "stateMutability": "view",
            "type": "function"
        },
        {
            "inputs": [
                {
                    "internalType": "uint256",
                    "name": "shares",
                    "type": "uint256"
                }
            ],
            "name": "convertToAssets",
            "outputs": [
                {
                    "internalType": "uint256",
                    "name": "",
                    "type": "uint256"
                }
            ],
            "stateMutability": "view",
            "type": "function"
        },
        {
            "inputs": [
                {
                    "internalType": "uint256",
                    "name": "assets",
                    "type": "uint256"
                }
            ],
            "name": "convertToShares",
            "outputs": [
                {
                    "internalType": "uint256",
                    "name": "",
                    "type": "uint256"
                }
            ],
            "stateMutability": "view",
            "type": "function"
        },
        {
            "inputs": [],
            "name": "decimals",
            "outputs": [
                {
                    "internalType": "uint8",
                    "name": "",
                    "type": "uint8"
                }
            ],
            "stateMutability": "view",
            "type": "function"
        },
        {
            "inputs": [
                {
                    "internalType": "address",
                    "name": "spender",
                    "type": "address"
                },
                {
                    "internalType": "uint256",
                    "name": "subtractedValue",
                    "type": "uint256"
                }
            ],
            "name": "decreaseAllowance",
            "outputs": [
                {
                    "internalType": "bool",
                    "name": "",
                    "type": "bool"
                }
            ],
            "stateMutability": "nonpayable",
            "type": "function"
        },
        {
            "inputs": [
                {
                    "internalType": "uint256",
                    "name": "assets",
                    "type": "uint256"
                },
                {
                    "internalType": "address",
                    "name": "receiver",
                    "type": "address"
                }
            ],
            "name": "deposit",
            "outputs": [
                {
                    "internalType": "uint256",
                    "name": "",
                    "type": "uint256"
                }
            ],
            "stateMutability": "nonpayable",
            "type": "function"
        },
        {
            "inputs": [
                {
                    "internalType": "address",
                    "name": "account",
                    "type": "address"
                },
                {
                    "internalType": "uint256",
                    "name": "amount",
                    "type": "uint256"
                }
            ],
            "name": "erc20Mint",
            "outputs": [],
            "stateMutability": "nonpayable",
            "type": "function"
        },
        {
            "inputs": [
                {
                    "internalType": "address",
                    "name": "spender",
                    "type": "address"
                },
                {
                    "internalType": "uint256",
                    "name": "addedValue",
                    "type": "uint256"
                }
            ],
            "name": "increaseAllowance",
            "outputs": [
                {
                    "internalType": "bool",
                    "name": "",
                    "type": "bool"
                }
            ],
            "stateMutability": "nonpayable",
            "type": "function"
        },
        {
            "inputs": [
                {
                    "internalType": "address",
                    "name": "",
                    "type": "address"
                }
            ],
            "name": "maxDeposit",
            "outputs": [
                {
                    "internalType": "uint256",
                    "name": "",
                    "type": "uint256"
                }
            ],
            "stateMutability": "view",
            "type": "function"
        },
        {
            "inputs": [
                {
                    "internalType": "address",
                    "name": "",
                    "type": "address"
                }
            ],
            "name": "maxMint",
            "outputs": [
                {
                    "internalType": "uint256",
                    "name": "",
                    "type": "uint256"
                }
            ],
            "stateMutability": "view",
            "type": "function"
        },
        {
            "inputs": [
                {
                    "internalType": "address",
                    "name": "owner",
                    "type": "address"
                }
            ],
            "name": "maxRedeem",
            "outputs": [
                {
                    "internalType": "uint256",
                    "name": "",
                    "type": "uint256"
                }
            ],
            "stateMutability": "view",
            "type": "function"
        },
        {
            "inputs": [
                {
                    "internalType": "address",
                    "name": "owner",
                    "type": "address"
                }
            ],
            "name": "maxWithdraw",
            "outputs": [
                {
                    "internalType": "uint256",
                    "name": "",
                    "type": "uint256"
                }
            ],
            "stateMutability": "view",
            "type": "function"
        },
        {
            "inputs": [
                {
                    "internalType": "uint256",
                    "name": "shares",
                    "type": "uint256"
                },
                {
                    "internalType": "address",
                    "name": "receiver",
                    "type": "address"
                }
            ],
            "name": "mint",
            "outputs": [
                {
                    "internalType": "uint256",
                    "name": "",
                    "type": "uint256"
                }
            ],
            "stateMutability": "nonpayable",
            "type": "function"
        },
        {
            "inputs": [],
            "name": "name",
            "outputs": [
                {
                    "internalType": "string",
                    "name": "",
                    "type": "string"
                }
            ],
            "stateMutability": "view",
            "type": "function"
        },
        {
            "inputs": [
                {
                    "internalType": "uint256",
                    "name": "assets",
                    "type": "uint256"
                }
            ],
            "name": "previewDeposit",
            "outputs": [
                {
                    "internalType": "uint256",
                    "name": "",
                    "type": "uint256"
                }
            ],
            "stateMutability": "view",
            "type": "function"
        },
        {
            "inputs": [
                {
                    "internalType": "uint256",
                    "name": "shares",
                    "type": "uint256"
                }
            ],
            "name": "previewMint",
            "outputs": [
                {
                    "internalType": "uint256",
                    "name": "",
                    "type": "uint256"
                }
            ],
            "stateMutability": "view",
            "type": "function"
        },
        {
            "inputs": [
                {
                    "internalType": "uint256",
                    "name": "shares",
                    "type": "uint256"
                }
            ],
            "name": "previewRedeem",
            "outputs": [
                {
                    "internalType": "uint256",
                    "name": "",
                    "type": "uint256"
                }
            ],
            "stateMutability": "view",
            "type": "function"
        },
        {
            "inputs": [
                {
                    "internalType": "uint256",
                    "name": "assets",
                    "type": "uint256"
                }
            ],
            "name": "previewWithdraw",
            "outputs": [
                {
                    "internalType": "uint256",
                    "name": "",
                    "type": "uint256"
                }
            ],
            "stateMutability": "view",
            "type": "function"
        },
        {
            "inputs": [
                {
                    "internalType": "uint256",
                    "name": "shares",
                    "type": "uint256"
                },
                {
                    "internalType": "address",
                    "name": "receiver",
                    "type": "address"
                },
                {
                    "internalType": "address",
                    "name": "owner",
                    "type": "address"
                }
            ],
            "name": "redeem",
            "outputs": [
                {
                    "internalType": "uint256",
                    "name": "",
                    "type": "uint256"
                }
            ],
            "stateMutability": "nonpayable",
            "type": "function"
        },
        {
            "inputs": [],
            "name": "symbol",
            "outputs": [
                {
                    "internalType": "string",
                    "name": "",
                    "type": "string"
                }
            ],
            "stateMutability": "view",
            "type": "function"
        },
        {
            "inputs": [],
            "name": "totalSupply",
            "outputs": [
                {
                    "internalType": "uint256",
                    "name": "",
                    "type": "uint256"
                }
            ],
            "stateMutability": "view",
            "type": "function"
        },
        {
            "inputs": [],
            "name": "totalVaultValue",
            "outputs": [
                {
                    "internalType": "uint256",
                    "name": "",
                    "type": "uint256"
                }
            ],
            "stateMutability": "view",
            "type": "function"
        },
        {
            "inputs": [
                {
                    "internalType": "address",
                    "name": "to",
                    "type": "address"
                },
                {
                    "internalType": "uint256",
                    "name": "amount",
                    "type": "uint256"
                }
            ],
            "name": "transfer",
            "outputs": [
                {
                    "internalType": "bool",
                    "name": "",
                    "type": "bool"
                }
            ],
            "stateMutability": "nonpayable",
            "type": "function"
        },
        {
            "inputs": [
                {
                    "internalType": "address",
                    "name": "from",
                    "type": "address"
                },
                {
                    "internalType": "address",
                    "name": "to",
                    "type": "address"
                },
                {
                    "internalType": "uint256",
                    "name": "amount",
                    "type": "uint256"
                }
            ],
            "name": "transferFrom",
            "outputs": [
                {
                    "internalType": "bool",
                    "name": "",
                    "type": "bool"
                }
            ],
            "stateMutability": "nonpayable",
            "type": "function"
        },
        {
            "inputs": [
                {
                    "internalType": "uint256",
                    "name": "shares",
                    "type": "uint256"
                },
                {
                    "internalType": "address",
                    "name": "receiver",
                    "type": "address"
                },
                {
                    "internalType": "address",
                    "name": "owner",
                    "type": "address"
                }
            ],
            "name": "vaRedeem",
            "outputs": [
                {
                    "internalType": "uint256",
                    "name": "",
                    "type": "uint256"
                }
            ],
            "stateMutability": "nonpayable",
            "type": "function"
        },
        {
            "inputs": [
                {
                    "internalType": "uint256",
                    "name": "assets",
                    "type": "uint256"
                },
                {
                    "internalType": "address",
                    "name": "receiver",
                    "type": "address"
                },
                {
                    "internalType": "address",
                    "name": "owner",
                    "type": "address"
                }
            ],
            "name": "withdraw",
            "outputs": [
                {
                    "internalType": "uint256",
                    "name": "",
                    "type": "uint256"
                }
            ],
            "stateMutability": "nonpayable",
            "type": "function"
        }
    ],
    "bytecode": {
        "object": "0x60e06040523480156200001157600080fd5b5060405162001c7538038062001c75833981016040819052620000349162000348565b8151829082906200004d906003906020850190620001af565b50805162000063906004906020840190620001af565b5050506000806200007a86620000c360201b60201c565b91509150816200009f5762000099620001aa60201b620009201760201c565b620000a1565b805b60ff1660c0525050506001600160a01b03928316608052501660a05262000451565b60408051600481526024810182526020810180516001600160e01b031663313ce56760e01b17905290516000918291829182916001600160a01b038716916200010c91620003dd565b6000604051808303816000865af19150503d80600081146200014b576040519150601f19603f3d011682016040523d82523d6000602084013e62000150565b606091505b50915091508180156200016557506020815110155b156200019d57600081806020019051810190620001839190620003fb565b905060ff81116200019b576001969095509350505050565b505b5060009485945092505050565b601290565b828054620001bd9062000415565b90600052602060002090601f016020900481019282620001e157600085556200022c565b82601f10620001fc57805160ff19168380011785556200022c565b828001600101855582156200022c579182015b828111156200022c5782518255916020019190600101906200020f565b506200023a9291506200023e565b5090565b5b808211156200023a57600081556001016200023f565b6001600160a01b03811681146200026b57600080fd5b50565b634e487b7160e01b600052604160045260246000fd5b60005b83811015620002a157818101518382015260200162000287565b83811115620002b1576000848401525b50505050565b600082601f830112620002c957600080fd5b81516001600160401b0380821115620002e657620002e66200026e565b604051601f8301601f19908116603f011681019082821181831017156200031157620003116200026e565b816040528381528660208588010111156200032b57600080fd5b6200033e84602083016020890162000284565b9695505050505050565b600080600080608085870312156200035f57600080fd5b84516200036c8162000255565b60208601519094506200037f8162000255565b60408601519093506001600160401b03808211156200039d57600080fd5b620003ab88838901620002b7565b93506060870151915080821115620003c257600080fd5b50620003d187828801620002b7565b91505092959194509250565b60008251620003f181846020870162000284565b9190910192915050565b6000602082840312156200040e57600080fd5b5051919050565b600181811c908216806200042a57607f821691505b6020821081036200044b57634e487b7160e01b600052602260045260246000fd5b50919050565b60805160a05160c0516117df62000496600039600061027e01526000610e550152600081816102b50152818161073101528181610d5c0152610e0801526117df6000f3fe608060405234801561001057600080fd5b50600436106101cf5760003560e01c806374c4bcbd11610104578063b460af94116100a2578063ce96cb7711610071578063ce96cb7714610400578063d905777e14610413578063dd62ed3e14610426578063ef8b30f7146103ed57600080fd5b8063b460af94146103b2578063ba087652146103c5578063c63d75b6146103d8578063c6e6f592146103ed57600080fd5b8063a457c2d7116100de578063a457c2d714610371578063a9059cbb14610384578063afbc74b914610397578063b3d7f6b91461039f57600080fd5b806374c4bcbd1461034157806394bf804d1461035657806395d89b411461036957600080fd5b8063313ce56711610171578063402d267d1161014b578063402d267d146102f25780634cdad506146101f25780636e553f651461030557806370a082311461031857600080fd5b8063313ce5671461027757806338d52e0f146102a857806339509351146102df57600080fd5b80630a28a477116101ad5780630a28a4771461023657806318160ddd1461024957806323b872dd146102515780632e37e8ee1461026457600080fd5b806306fdde03146101d457806307a2d13a146101f2578063095ea7b314610213575b600080fd5b6101dc610439565b6040516101e9919061152c565b60405180910390f35b61020561020036600461155f565b6104cb565b6040519081526020016101e9565b610226610221366004611594565b6104de565b60405190151581526020016101e9565b61020561024436600461155f565b6104f6565b600254610205565b61022661025f3660046115be565b610503565b6102056102723660046115fa565b610529565b60405160ff7f00000000000000000000000000000000000000000000000000000000000000001681526020016101e9565b6040516001600160a01b037f00000000000000000000000000000000000000000000000000000000000000001681526020016101e9565b6102266102ed366004611594565b61059c565b610205610300366004611636565b6105be565b610205610313366004611651565b6105dc565b610205610326366004611636565b6001600160a01b031660009081526020819052604090205490565b61035461034f366004611594565b61064f565b005b610205610364366004611651565b61065d565b6101dc610676565b61022661037f366004611594565b610685565b610226610392366004611594565b61070b565b610205610719565b6102056103ad36600461155f565b6107a9565b6102056103c03660046115fa565b6107b6565b6102056103d33660046115fa565b610832565b6102056103e6366004611636565b5060001990565b6102056103fb36600461155f565b6108a6565b61020561040e366004611636565b6108b3565b610205610421366004611636565b6108d7565b61020561043436600461167d565b6108f5565b606060038054610448906116a7565b80601f0160208091040260200160405190810160405280929190818152602001828054610474906116a7565b80156104c15780601f10610496576101008083540402835291602001916104c1565b820191906000526020600020905b8154815290600101906020018083116104a457829003601f168201915b5050505050905090565b60006104d8826000610925565b92915050565b6000336104ec818585610958565b5060019392505050565b60006104d8826001610a7c565b600033610511858285610aae565b61051c858585610b28565b60019150505b9392505050565b60008061053560025490565b905060006105617fae99eeda913ee28a233ad72ca819bb96aced7e76def60bf66f37b8afad9e40965490565b610569610719565b61057391906116f7565b9050600061058387838584610ccc565b9050610592338787848b610d29565b9695505050505050565b6000336104ec8185856105af83836108f5565b6105b9919061170e565b610958565b60006105c8610de9565b6105d35760006104d8565b60001992915050565b60006105e7826105be565b83111561063b5760405162461bcd60e51b815260206004820152601e60248201527f455243343632363a206465706f736974206d6f7265207468616e206d6178000060448201526064015b60405180910390fd5b610646338385610e03565b50600192915050565b6106598282610fbf565b5050565b600080610669846107a9565b9050610522338483610e03565b606060048054610448906116a7565b6000338161069382866108f5565b9050838110156106f35760405162461bcd60e51b815260206004820152602560248201527f45524332303a2064656372656173656420616c6c6f77616e63652062656c6f77604482015264207a65726f60d81b6064820152608401610632565b6107008286868403610958565b506001949350505050565b6000336104ec818585610b28565b6040516370a0823160e01b81523060048201526000907f00000000000000000000000000000000000000000000000000000000000000006001600160a01b0316906370a0823190602401602060405180830381865afa158015610780573d6000803e3d6000fd5b505050506040513d601f19601f820116820180604052508101906107a49190611726565b905090565b60006104d8826001610925565b60006107c1826108b3565b8411156108105760405162461bcd60e51b815260206004820152601f60248201527f455243343632363a207769746864726177206d6f7265207468616e206d6178006044820152606401610632565b600061081b856104f6565b905061082a3385858885610d29565b949350505050565b600061083d826108d7565b84111561088c5760405162461bcd60e51b815260206004820152601d60248201527f455243343632363a2072656465656d206d6f7265207468616e206d61780000006044820152606401610632565b6000610897856104cb565b905061082a3385858489610d29565b60006104d8826000610a7c565b6001600160a01b0381166000908152602081905260408120546104d8906000610925565b6001600160a01b0381166000908152602081905260408120546104d8565b6001600160a01b03918216600090815260016020908152604080832093909416825291909152205490565b601290565b60008061093160025490565b905080156109525761094d610944610719565b85908386610ccc565b61082a565b8361082a565b6001600160a01b0383166109ba5760405162461bcd60e51b8152602060048201526024808201527f45524332303a20617070726f76652066726f6d20746865207a65726f206164646044820152637265737360e01b6064820152608401610632565b6001600160a01b038216610a1b5760405162461bcd60e51b815260206004820152602260248201527f45524332303a20617070726f766520746f20746865207a65726f206164647265604482015261737360f01b6064820152608401610632565b6001600160a01b0383811660008181526001602090815260408083209487168084529482529182902085905590518481527f8c5be1e5ebec7d5bd14f71427d1e84f3dd0314c0f7b2291e5b200ac8c7c3b925910160405180910390a3505050565b600080610a8860025490565b9050831580610a95575080155b6109525761094d81610aa5610719565b86919086610ccc565b6000610aba84846108f5565b90506000198114610b225781811015610b155760405162461bcd60e51b815260206004820152601d60248201527f45524332303a20696e73756666696369656e7420616c6c6f77616e63650000006044820152606401610632565b610b228484848403610958565b50505050565b6001600160a01b038316610b8c5760405162461bcd60e51b815260206004820152602560248201527f45524332303a207472616e736665722066726f6d20746865207a65726f206164604482015264647265737360d81b6064820152608401610632565b6001600160a01b038216610bee5760405162461bcd60e51b815260206004820152602360248201527f45524332303a207472616e7366657220746f20746865207a65726f206164647260448201526265737360e81b6064820152608401610632565b6001600160a01b03831660009081526020819052604090205481811015610c665760405162461bcd60e51b815260206004820152602660248201527f45524332303a207472616e7366657220616d6f756e7420657863656564732062604482015265616c616e636560d01b6064820152608401610632565b6001600160a01b03848116600081815260208181526040808320878703905593871680835291849020805487019055925185815290927fddf252ad1be2c89b69c2b068fc378daa952ba7f163c4a11628f55a4df523b3ef910160405180910390a3610b22565b600080610cda868686611083565b90506001836002811115610cf057610cf061173f565b148015610d0d575060008480610d0857610d08611755565b868809115b15610d2057610d1d60018261170e565b90505b95945050505050565b826001600160a01b0316856001600160a01b031614610d4d57610d4d838683610aae565b610d578382611132565b610d827f00000000000000000000000000000000000000000000000000000000000000008584611264565b826001600160a01b0316846001600160a01b0316866001600160a01b03167ffbde797d201c681b91056529119e0b02407c7bb96a4a2c75c01fc9667232c8db8585604051610dda929190918252602082015260400190565b60405180910390a45050505050565b600080610df4610719565b11806107a45750506002541590565b610e2f7f00000000000000000000000000000000000000000000000000000000000000008430846112c7565b6040516340c10f1960e01b81526001600160a01b038381166004830152602482018390527f000000000000000000000000000000000000000000000000000000000000000016906340c10f1990604401600060405180830381600087803b158015610e9957600080fd5b505af1158015610ead573d6000803e3d6000fd5b50505050610ebb8282610fbf565b7fae99eeda913ee28a233ad72ca819bb96aced7e76def60bf66f37b8afad9e40966000610f1083610f0a7fae99eeda913ee28a233ad72ca819bb96aced7e76def60bf66f37b8afad9e40965490565b906112ff565b80835590507ff601e68f3e06e817715254eeb07a3eac420c81a885543d0be4459fe1c422ed646000610f6485610f0a7ff601e68f3e06e817715254eeb07a3eac420c81a885543d0be4459fe1c422ed645490565b9050808255856001600160a01b0316876001600160a01b03167f5548c837ab068cf56a2c2479df0882a4922fd203edb7517321831d95078c5f6287604051610fae91815260200190565b60405180910390a350505050505050565b6001600160a01b0382166110155760405162461bcd60e51b815260206004820152601f60248201527f45524332303a206d696e7420746f20746865207a65726f2061646472657373006044820152606401610632565b8060026000828254611027919061170e565b90915550506001600160a01b038216600081815260208181526040808320805486019055518481527fddf252ad1be2c89b69c2b068fc378daa952ba7f163c4a11628f55a4df523b3ef910160405180910390a35050565b505050565b60008080600019858709858702925082811083820303915050806000036110bd578382816110b3576110b3611755565b0492505050610522565b8084116110c957600080fd5b60008486880960026001871981018816978890046003810283188082028403028082028403028082028403028082028403028082028403029081029092039091026000889003889004909101858311909403939093029303949094049190911702949350505050565b6001600160a01b0382166111925760405162461bcd60e51b815260206004820152602160248201527f45524332303a206275726e2066726f6d20746865207a65726f206164647265736044820152607360f81b6064820152608401610632565b6001600160a01b038216600090815260208190526040902054818110156112065760405162461bcd60e51b815260206004820152602260248201527f45524332303a206275726e20616d6f756e7420657863656564732062616c616e604482015261636560f01b6064820152608401610632565b6001600160a01b0383166000818152602081815260408083208686039055600280548790039055518581529192917fddf252ad1be2c89b69c2b068fc378daa952ba7f163c4a11628f55a4df523b3ef910160405180910390a3505050565b6040516001600160a01b03831660248201526044810182905261107e90849063a9059cbb60e01b906064015b60408051601f198184030181529190526020810180516001600160e01b03166001600160e01b03199093169290921790915261130b565b6040516001600160a01b0380851660248301528316604482015260648101829052610b229085906323b872dd60e01b90608401611290565b6000610522828461170e565b6000611360826040518060400160405280602081526020017f5361666545524332303a206c6f772d6c6576656c2063616c6c206661696c6564815250856001600160a01b03166113dd9092919063ffffffff16565b80519091501561107e578080602001905181019061137e919061176b565b61107e5760405162461bcd60e51b815260206004820152602a60248201527f5361666545524332303a204552433230206f7065726174696f6e20646964206e6044820152691bdd081cdd58d8d9595960b21b6064820152608401610632565b606061082a848460008585600080866001600160a01b03168587604051611404919061178d565b60006040518083038185875af1925050503d8060008114611441576040519150601f19603f3d011682016040523d82523d6000602084013e611446565b606091505b509150915061145787838387611462565b979650505050505050565b606083156114d15782516000036114ca576001600160a01b0385163b6114ca5760405162461bcd60e51b815260206004820152601d60248201527f416464726573733a2063616c6c20746f206e6f6e2d636f6e74726163740000006044820152606401610632565b508161082a565b61082a83838151156114e65781518083602001fd5b8060405162461bcd60e51b8152600401610632919061152c565b60005b8381101561151b578181015183820152602001611503565b83811115610b225750506000910152565b602081526000825180602084015261154b816040850160208701611500565b601f01601f19169190910160400192915050565b60006020828403121561157157600080fd5b5035919050565b80356001600160a01b038116811461158f57600080fd5b919050565b600080604083850312156115a757600080fd5b6115b083611578565b946020939093013593505050565b6000806000606084860312156115d357600080fd5b6115dc84611578565b92506115ea60208501611578565b9150604084013590509250925092565b60008060006060848603121561160f57600080fd5b8335925061161f60208501611578565b915061162d60408501611578565b90509250925092565b60006020828403121561164857600080fd5b61052282611578565b6000806040838503121561166457600080fd5b8235915061167460208401611578565b90509250929050565b6000806040838503121561169057600080fd5b61169983611578565b915061167460208401611578565b600181811c908216806116bb57607f821691505b6020821081036116db57634e487b7160e01b600052602260045260246000fd5b50919050565b634e487b7160e01b600052601160045260246000fd5b600082821015611709576117096116e1565b500390565b60008219821115611721576117216116e1565b500190565b60006020828403121561173857600080fd5b5051919050565b634e487b7160e01b600052602160045260246000fd5b634e487b7160e01b600052601260045260246000fd5b60006020828403121561177d57600080fd5b8151801515811461052257600080fd5b6000825161179f818460208701611500565b919091019291505056fea2646970667358221220eb7ba59e08af471281188eced9a2355880ef01e77eb97d6f645f281fbfbdd6dd64736f6c634300080e0033",
        "linkReferences": {}
    },
    "methodIdentifiers": {
        "allowance(address,address)": "dd62ed3e",
        "approve(address,uint256)": "095ea7b3",
        "asset()": "38d52e0f",
        "balanceOf(address)": "70a08231",
        "convertToAssets(uint256)": "07a2d13a",
        "convertToShares(uint256)": "c6e6f592",
        "decimals()": "313ce567",
        "decreaseAllowance(address,uint256)": "a457c2d7",
        "deposit(uint256,address)": "6e553f65",
        "erc20Mint(address,uint256)": "74c4bcbd",
        "increaseAllowance(address,uint256)": "39509351",
        "maxDeposit(address)": "402d267d",
        "maxMint(address)": "c63d75b6",
        "maxRedeem(address)": "d905777e",
        "maxWithdraw(address)": "ce96cb77",
        "mint(uint256,address)": "94bf804d",
        "name()": "06fdde03",
        "previewDeposit(uint256)": "ef8b30f7",
        "previewMint(uint256)": "b3d7f6b9",
        "previewRedeem(uint256)": "4cdad506",
        "previewWithdraw(uint256)": "0a28a477",
        "redeem(uint256,address,address)": "ba087652",
        "symbol()": "95d89b41",
        "totalSupply()": "18160ddd",
        "totalVaultValue()": "afbc74b9",
        "transfer(address,uint256)": "a9059cbb",
        "transferFrom(address,address,uint256)": "23b872dd",
        "vaRedeem(uint256,address,address)": "2e37e8ee",
        "withdraw(uint256,address,address)": "b460af94"
    },
    "id": 24
}